{
  "_format": "hh-sol-artifact-1",
  "contractName": "CrystalGive",
  "sourceName": "contracts/CrystalGive.sol",
  "abi": [
    {
      "inputs": [],
      "name": "ReentrancyGuardReentrantCall",
      "type": "error"
    },
    {
      "anonymous": false,
      "inputs": [
        {
          "indexed": false,
          "internalType": "uint256",
          "name": "campaignId",
          "type": "uint256"
        },
        {
          "indexed": false,
          "internalType": "string",
          "name": "title",
          "type": "string"
        },
        {
          "indexed": false,
          "internalType": "address",
          "name": "manager",
          "type": "address"
        }
      ],
      "name": "CampaignCreated",
      "type": "event"
    },
    {
      "anonymous": false,
      "inputs": [
        {
          "indexed": false,
          "internalType": "uint256",
          "name": "campaignId",
          "type": "uint256"
        },
        {
          "indexed": false,
          "internalType": "address",
          "name": "donor",
          "type": "address"
        },
        {
          "indexed": false,
          "internalType": "uint256",
          "name": "amount",
          "type": "uint256"
        }
      ],
      "name": "DonationReceived",
      "type": "event"
    },
    {
      "anonymous": false,
      "inputs": [
        {
          "indexed": false,
          "internalType": "uint256",
          "name": "campaignId",
          "type": "uint256"
        },
        {
          "indexed": false,
          "internalType": "uint256",
          "name": "requestId",
          "type": "uint256"
        },
        {
          "indexed": false,
          "internalType": "address",
          "name": "approver",
          "type": "address"
        }
      ],
      "name": "RequestApproved",
      "type": "event"
    },
    {
      "anonymous": false,
      "inputs": [
        {
          "indexed": false,
          "internalType": "uint256",
          "name": "campaignId",
          "type": "uint256"
        },
        {
          "indexed": false,
          "internalType": "uint256",
          "name": "requestId",
          "type": "uint256"
        },
        {
          "indexed": false,
          "internalType": "string",
          "name": "description",
          "type": "string"
        },
        {
          "indexed": false,
          "internalType": "uint256",
          "name": "amount",
          "type": "uint256"
        }
      ],
      "name": "RequestCreated",
      "type": "event"
    },
    {
      "anonymous": false,
      "inputs": [
        {
          "indexed": false,
          "internalType": "uint256",
          "name": "campaignId",
          "type": "uint256"
        },
        {
          "indexed": false,
          "internalType": "uint256",
          "name": "requestId",
          "type": "uint256"
        },
        {
          "indexed": false,
          "internalType": "uint256",
          "name": "amount",
          "type": "uint256"
        }
      ],
      "name": "RequestFinalized",
      "type": "event"
    },
    {
      "inputs": [
        {
          "internalType": "uint256",
          "name": "_campaignId",
          "type": "uint256"
        },
        {
          "internalType": "uint256",
          "name": "_requestId",
          "type": "uint256"
        }
      ],
      "name": "approveRequest",
      "outputs": [],
      "stateMutability": "nonpayable",
      "type": "function"
    },
    {
      "inputs": [],
      "name": "campaignCount",
      "outputs": [
        {
          "internalType": "uint256",
          "name": "",
          "type": "uint256"
        }
      ],
      "stateMutability": "view",
      "type": "function"
    },
    {
      "inputs": [
        {
          "internalType": "uint256",
          "name": "",
          "type": "uint256"
        }
      ],
      "name": "campaigns",
      "outputs": [
        {
          "internalType": "address",
          "name": "manager",
          "type": "address"
        },
        {
          "internalType": "string",
          "name": "title",
          "type": "string"
        },
        {
          "internalType": "uint256",
          "name": "goalAmount",
          "type": "uint256"
        },
        {
          "internalType": "uint256",
          "name": "raisedAmount",
          "type": "uint256"
        },
        {
          "internalType": "uint256",
          "name": "approversCount",
          "type": "uint256"
        }
      ],
      "stateMutability": "view",
      "type": "function"
    },
    {
      "inputs": [
        {
          "internalType": "string",
          "name": "_title",
          "type": "string"
        },
        {
          "internalType": "uint256",
          "name": "_goal",
          "type": "uint256"
        }
      ],
      "name": "createCampaign",
      "outputs": [],
      "stateMutability": "nonpayable",
      "type": "function"
    },
    {
      "inputs": [
        {
          "internalType": "uint256",
          "name": "_campaignId",
          "type": "uint256"
        },
        {
          "internalType": "string",
          "name": "_description",
          "type": "string"
        },
        {
          "internalType": "uint256",
          "name": "_value",
          "type": "uint256"
        },
        {
          "internalType": "address",
          "name": "_recipient",
          "type": "address"
        },
        {
          "internalType": "string",
          "name": "_proofCid",
          "type": "string"
        }
      ],
      "name": "createRequest",
      "outputs": [],
      "stateMutability": "nonpayable",
      "type": "function"
    },
    {
      "inputs": [
        {
          "internalType": "uint256",
          "name": "_campaignId",
          "type": "uint256"
        }
      ],
      "name": "donate",
      "outputs": [],
      "stateMutability": "payable",
      "type": "function"
    },
    {
      "inputs": [
        {
          "internalType": "uint256",
          "name": "_campaignId",
          "type": "uint256"
        },
        {
          "internalType": "uint256",
          "name": "_requestId",
          "type": "uint256"
        }
      ],
      "name": "finalizeRequest",
      "outputs": [],
      "stateMutability": "nonpayable",
      "type": "function"
    },
    {
      "inputs": [
        {
          "internalType": "uint256",
          "name": "_campaignId",
          "type": "uint256"
        }
      ],
      "name": "getRequestsCount",
      "outputs": [
        {
          "internalType": "uint256",
          "name": "",
          "type": "uint256"
        }
      ],
      "stateMutability": "view",
      "type": "function"
    },
    {
      "inputs": [
        {
          "internalType": "uint256",
          "name": "",
          "type": "uint256"
        },
        {
          "internalType": "uint256",
          "name": "",
          "type": "uint256"
        }
      ],
      "name": "requests",
      "outputs": [
        {
          "internalType": "string",
          "name": "description",
          "type": "string"
        },
        {
          "internalType": "uint256",
          "name": "value",
          "type": "uint256"
        },
        {
          "internalType": "address",
          "name": "recipient",
          "type": "address"
        },
        {
          "internalType": "string",
          "name": "proofCid",
          "type": "string"
        },
        {
          "internalType": "bool",
          "name": "complete",
          "type": "bool"
        },
        {
          "internalType": "uint256",
          "name": "approvalCount",
          "type": "uint256"
        }
      ],
      "stateMutability": "view",
      "type": "function"
    }
  ],
  "bytecode": "0x608060405234801561001057600080fd5b506001600081905550611e16806100286000396000f3fe6080604052600436106100865760003560e01c80639a5e5b77116100595780639a5e5b7714610162578063c8b9dd671461019f578063d3ed2baf146101c8578063f102a67c146101f1578063f14faf6f1461021a57610086565b8063141961bc1461008b5780632c0a90a9146100cc5780637274e30d146100f55780639089add814610120575b600080fd5b34801561009757600080fd5b506100b260048036038101906100ad9190610f97565b610236565b6040516100c39594939291906110a4565b60405180910390f35b3480156100d857600080fd5b506100f360048036038101906100ee91906110fe565b610314565b005b34801561010157600080fd5b5061010a610582565b604051610117919061113e565b60405180910390f35b34801561012c57600080fd5b50610147600480360381019061014291906110fe565b610588565b60405161015996959493929190611174565b60405180910390f35b34801561016e57600080fd5b5061018960048036038101906101849190610f97565b61071e565b604051610196919061113e565b60405180910390f35b3480156101ab57600080fd5b506101c660048036038101906101c191906110fe565b61073e565b005b3480156101d457600080fd5b506101ef60048036038101906101ea9190611344565b610a68565b005b3480156101fd57600080fd5b50610218600480360381019061021391906113f7565b610c9c565b005b610234600480360381019061022f9190610f97565b610d81565b005b60016020528060005260406000206000915090508060000160009054906101000a900473ffffffffffffffffffffffffffffffffffffffff169080600101805461027f90611482565b80601f01602080910402602001604051908101604052809291908181526020018280546102ab90611482565b80156102f85780601f106102cd576101008083540402835291602001916102f8565b820191906000526020600020905b8154815290600101906020018083116102db57829003601f168201915b5050505050908060020154908060030154908060040154905085565b816001600082815260200190815260200160002060050160003373ffffffffffffffffffffffffffffffffffffffff1673ffffffffffffffffffffffffffffffffffffffff16815260200190815260200160002060009054906101000a900460ff166103b5576040517f08c379a00000000000000000000000000000000000000000000000000000000081526004016103ac906114ff565b60405180910390fd5b60006002600085815260200190815260200160002083815481106103dc576103db61151f565b5b906000526020600020906007020190508060060160003373ffffffffffffffffffffffffffffffffffffffff1673ffffffffffffffffffffffffffffffffffffffff16815260200190815260200160002060009054906101000a900460ff161561047b576040517f08c379a00000000000000000000000000000000000000000000000000000000081526004016104729061159a565b60405180910390fd5b8060040160009054906101000a900460ff16156104cd576040517f08c379a00000000000000000000000000000000000000000000000000000000081526004016104c490611606565b60405180910390fd5b60018160060160003373ffffffffffffffffffffffffffffffffffffffff1673ffffffffffffffffffffffffffffffffffffffff16815260200190815260200160002060006101000a81548160ff02191690831515021790555080600501600081548092919061053c90611655565b91905055507f95a32afb427792742cc220be9f73dc6821ec4341a909dbab96d577dc7a8a738a8484336040516105749392919061169d565b60405180910390a150505050565b60035481565b600260205281600052604060002081815481106105a457600080fd5b9060005260206000209060070201600091509150508060000180546105c890611482565b80601f01602080910402602001604051908101604052809291908181526020018280546105f490611482565b80156106415780601f1061061657610100808354040283529160200191610641565b820191906000526020600020905b81548152906001019060200180831161062457829003601f168201915b5050505050908060010154908060020160009054906101000a900473ffffffffffffffffffffffffffffffffffffffff169080600301805461068290611482565b80601f01602080910402602001604051908101604052809291908181526020018280546106ae90611482565b80156106fb5780601f106106d0576101008083540402835291602001916106fb565b820191906000526020600020905b8154815290600101906020018083116106de57829003601f168201915b5050505050908060040160009054906101000a900460ff16908060050154905086565b600060026000838152602001908152602001600020805490509050919050565b816001600082815260200190815260200160002060000160009054906101000a900473ffffffffffffffffffffffffffffffffffffffff1673ffffffffffffffffffffffffffffffffffffffff163373ffffffffffffffffffffffffffffffffffffffff16146107e3576040517f08c379a00000000000000000000000000000000000000000000000000000000081526004016107da90611720565b60405180910390fd5b6107eb610efd565b60006002600085815260200190815260200160002083815481106108125761081161151f565b5b9060005260206000209060070201905060006001600086815260200190815260200160002090508160040160009054906101000a900460ff161561088b576040517f08c379a000000000000000000000000000000000000000000000000000000000815260040161088290611606565b60405180910390fd5b6002816004015461089c919061176f565b8260050154116108e1576040517f08c379a00000000000000000000000000000000000000000000000000000000081526004016108d8906117ec565b60405180910390fd5b8160010154471015610928576040517f08c379a000000000000000000000000000000000000000000000000000000000815260040161091f90611858565b60405180910390fd5b60018260040160006101000a81548160ff02191690831515021790555060008260020160009054906101000a900473ffffffffffffffffffffffffffffffffffffffff1673ffffffffffffffffffffffffffffffffffffffff168360010154604051610993906118a9565b60006040518083038185875af1925050503d80600081146109d0576040519150601f19603f3d011682016040523d82523d6000602084013e6109d5565b606091505b5050905080610a19576040517f08c379a0000000000000000000000000000000000000000000000000000000008152600401610a109061190a565b60405180910390fd5b7f1557420f69b14a9661c70e7f95f8d9eaa3a277adaef216dbc7640685e3083c6286868560010154604051610a509392919061192a565b60405180910390a1505050610a63610f43565b505050565b846001600082815260200190815260200160002060000160009054906101000a900473ffffffffffffffffffffffffffffffffffffffff1673ffffffffffffffffffffffffffffffffffffffff163373ffffffffffffffffffffffffffffffffffffffff1614610b0d576040517f08c379a0000000000000000000000000000000000000000000000000000000008152600401610b0490611720565b60405180910390fd5b600060016000888152602001908152602001600020905047851115610b67576040517f08c379a0000000000000000000000000000000000000000000000000000000008152600401610b5e906119ad565b60405180910390fd5b600060026000898152602001908152602001600020600181600181540180825580915050039060005260206000209060070201905086816000019081610bad9190611b79565b50858160010181905550848160020160006101000a81548173ffffffffffffffffffffffffffffffffffffffff021916908373ffffffffffffffffffffffffffffffffffffffff16021790555083816003019081610c0b9190611b79565b5060008160040160006101000a81548160ff021916908315150217905550600081600501819055507f685efcfa0721a180eb415c10d93227e68272b4639133915ddd140159246ce880886001600260008c815260200190815260200160002080549050610c789190611c4b565b8989604051610c8a9493929190611c7f565b60405180910390a15050505050505050565b60006001600060035481526020019081526020016000209050338160000160006101000a81548173ffffffffffffffffffffffffffffffffffffffff021916908373ffffffffffffffffffffffffffffffffffffffff16021790555082816001019081610d099190611b79565b5081816002018190555060008160030181905550600081600401819055507f2750eae5c1c1d8000d7e674f15576524a1b7e24f4a33052e9d80ce3889556e396003548433604051610d5c93929190611ccb565b60405180910390a160036000815480929190610d7790611655565b9190505550505050565b60003411610dc4576040517f08c379a0000000000000000000000000000000000000000000000000000000008152600401610dbb90611d55565b60405180910390fd5b60006001600083815260200190815260200160002090508060050160003373ffffffffffffffffffffffffffffffffffffffff1673ffffffffffffffffffffffffffffffffffffffff16815260200190815260200160002060009054906101000a900460ff16610ea35760018160050160003373ffffffffffffffffffffffffffffffffffffffff1673ffffffffffffffffffffffffffffffffffffffff16815260200190815260200160002060006101000a81548160ff021916908315150217905550806004016000815480929190610e9d90611655565b91905055505b34816003016000828254610eb79190611d75565b925050819055507f0b5b4c52969ff7329ecf7ee536409fda87812b15a8622bc6e8cdeab3aee14a26823334604051610ef193929190611da9565b60405180910390a15050565b600260005403610f39576040517f3ee5aeb500000000000000000000000000000000000000000000000000000000815260040160405180910390fd5b6002600081905550565b6001600081905550565b6000604051905090565b600080fd5b600080fd5b6000819050919050565b610f7481610f61565b8114610f7f57600080fd5b50565b600081359050610f9181610f6b565b92915050565b600060208284031215610fad57610fac610f57565b5b6000610fbb84828501610f82565b91505092915050565b600073ffffffffffffffffffffffffffffffffffffffff82169050919050565b6000610fef82610fc4565b9050919050565b610fff81610fe4565b82525050565b600081519050919050565b600082825260208201905092915050565b60005b8381101561103f578082015181840152602081019050611024565b60008484015250505050565b6000601f19601f8301169050919050565b600061106782611005565b6110718185611010565b9350611081818560208601611021565b61108a8161104b565b840191505092915050565b61109e81610f61565b82525050565b600060a0820190506110b96000830188610ff6565b81810360208301526110cb818761105c565b90506110da6040830186611095565b6110e76060830185611095565b6110f46080830184611095565b9695505050505050565b6000806040838503121561111557611114610f57565b5b600061112385828601610f82565b925050602061113485828601610f82565b9150509250929050565b60006020820190506111536000830184611095565b92915050565b60008115159050919050565b61116e81611159565b82525050565b600060c082019050818103600083015261118e818961105c565b905061119d6020830188611095565b6111aa6040830187610ff6565b81810360608301526111bc818661105c565b90506111cb6080830185611165565b6111d860a0830184611095565b979650505050505050565b600080fd5b600080fd5b7f4e487b7100000000000000000000000000000000000000000000000000000000600052604160045260246000fd5b6112258261104b565b810181811067ffffffffffffffff82111715611244576112436111ed565b5b80604052505050565b6000611257610f4d565b9050611263828261121c565b919050565b600067ffffffffffffffff821115611283576112826111ed565b5b61128c8261104b565b9050602081019050919050565b82818337600083830152505050565b60006112bb6112b684611268565b61124d565b9050828152602081018484840111156112d7576112d66111e8565b5b6112e2848285611299565b509392505050565b600082601f8301126112ff576112fe6111e3565b5b813561130f8482602086016112a8565b91505092915050565b61132181610fe4565b811461132c57600080fd5b50565b60008135905061133e81611318565b92915050565b600080600080600060a086880312156113605761135f610f57565b5b600061136e88828901610f82565b955050602086013567ffffffffffffffff81111561138f5761138e610f5c565b5b61139b888289016112ea565b94505060406113ac88828901610f82565b93505060606113bd8882890161132f565b925050608086013567ffffffffffffffff8111156113de576113dd610f5c565b5b6113ea888289016112ea565b9150509295509295909350565b6000806040838503121561140e5761140d610f57565b5b600083013567ffffffffffffffff81111561142c5761142b610f5c565b5b611438858286016112ea565b925050602061144985828601610f82565b9150509250929050565b7f4e487b7100000000000000000000000000000000000000000000000000000000600052602260045260246000fd5b6000600282049050600182168061149a57607f821691505b6020821081036114ad576114ac611453565b5b50919050565b7f4f6e6c7920646f6e6f72732063616e20766f7465000000000000000000000000600082015250565b60006114e9601483611010565b91506114f4826114b3565b602082019050919050565b60006020820190508181036000830152611518816114dc565b9050919050565b7f4e487b7100000000000000000000000000000000000000000000000000000000600052603260045260246000fd5b7f596f7520616c726561647920766f746564000000000000000000000000000000600082015250565b6000611584601183611010565b915061158f8261154e565b602082019050919050565b600060208201905081810360008301526115b381611577565b9050919050565b7f5265717565737420616c726561647920636f6d706c6574656400000000000000600082015250565b60006115f0601983611010565b91506115fb826115ba565b602082019050919050565b6000602082019050818103600083015261161f816115e3565b9050919050565b7f4e487b7100000000000000000000000000000000000000000000000000000000600052601160045260246000fd5b600061166082610f61565b91507fffffffffffffffffffffffffffffffffffffffffffffffffffffffffffffffff820361169257611691611626565b5b600182019050919050565b60006060820190506116b26000830186611095565b6116bf6020830185611095565b6116cc6040830184610ff6565b949350505050565b7f4f6e6c79206d616e616765722063616e2063616c6c2074686973000000000000600082015250565b600061170a601a83611010565b9150611715826116d4565b602082019050919050565b60006020820190508181036000830152611739816116fd565b9050919050565b7f4e487b7100000000000000000000000000000000000000000000000000000000600052601260045260246000fd5b600061177a82610f61565b915061178583610f61565b92508261179557611794611740565b5b828204905092915050565b7f4e6f7420656e6f75676820617070726f76616c73000000000000000000000000600082015250565b60006117d6601483611010565b91506117e1826117a0565b602082019050919050565b60006020820190508181036000830152611805816117c9565b9050919050565b7f496e73756666696369656e742066756e64730000000000000000000000000000600082015250565b6000611842601283611010565b915061184d8261180c565b602082019050919050565b6000602082019050818103600083015261187181611835565b9050919050565b600081905092915050565b50565b6000611893600083611878565b915061189e82611883565b600082019050919050565b60006118b482611886565b9150819050919050565b7f5472616e73666572206661696c65640000000000000000000000000000000000600082015250565b60006118f4600f83611010565b91506118ff826118be565b602082019050919050565b60006020820190508181036000830152611923816118e7565b9050919050565b600060608201905061193f6000830186611095565b61194c6020830185611095565b6119596040830184611095565b949350505050565b7f496e73756666696369656e7420636f6e74726163742062616c616e6365000000600082015250565b6000611997601d83611010565b91506119a282611961565b602082019050919050565b600060208201905081810360008301526119c68161198a565b9050919050565b60008190508160005260206000209050919050565b60006020601f8301049050919050565b600082821b905092915050565b600060088302611a2f7fffffffffffffffffffffffffffffffffffffffffffffffffffffffffffffffff826119f2565b611a3986836119f2565b95508019841693508086168417925050509392505050565b6000819050919050565b6000611a76611a71611a6c84610f61565b611a51565b610f61565b9050919050565b6000819050919050565b611a9083611a5b565b611aa4611a9c82611a7d565b8484546119ff565b825550505050565b600090565b611ab9611aac565b611ac4818484611a87565b505050565b5b81811015611ae857611add600082611ab1565b600181019050611aca565b5050565b601f821115611b2d57611afe816119cd565b611b07846119e2565b81016020851015611b16578190505b611b2a611b22856119e2565b830182611ac9565b50505b505050565b600082821c905092915050565b6000611b5060001984600802611b32565b1980831691505092915050565b6000611b698383611b3f565b9150826002028217905092915050565b611b8282611005565b67ffffffffffffffff811115611b9b57611b9a6111ed565b5b611ba58254611482565b611bb0828285611aec565b600060209050601f831160018114611be35760008415611bd1578287015190505b611bdb8582611b5d565b865550611c43565b601f198416611bf1866119cd565b60005b82811015611c1957848901518255600182019150602085019450602081019050611bf4565b86831015611c365784890151611c32601f891682611b3f565b8355505b6001600288020188555050505b505050505050565b6000611c5682610f61565b9150611c6183610f61565b9250828203905081811115611c7957611c78611626565b5b92915050565b6000608082019050611c946000830187611095565b611ca16020830186611095565b8181036040830152611cb3818561105c565b9050611cc26060830184611095565b95945050505050565b6000606082019050611ce06000830186611095565b8181036020830152611cf2818561105c565b9050611d016040830184610ff6565b949350505050565b7f446f6e6174696f6e206d7573742062652067726561746572207468616e203000600082015250565b6000611d3f601f83611010565b9150611d4a82611d09565b602082019050919050565b60006020820190508181036000830152611d6e81611d32565b9050919050565b6000611d8082610f61565b9150611d8b83610f61565b9250828201905080821115611da357611da2611626565b5b92915050565b6000606082019050611dbe6000830186611095565b611dcb6020830185610ff6565b611dd86040830184611095565b94935050505056fea26469706673582212208ee29b2d8c9d5bccbcbee0d1fd14015d0a8b13663fe1c37e2d6bcbac1eb6a98064736f6c63430008140033",
  "linkReferences": {},
  "deployedLinkReferences": {}
}